:020000040000FA
:0400000024EF14F0E5
:10060000003F065B4F666D7D077F6F777C395E79B3
:100610007141706F732065666574756172206F201B
:10062000200A706167616D656E746F202020202044
:100630000A202020202020202020200A50726573CC
:1006400073696F6E6520282A292020200020312020
:100650002D204761736F6C696E610A2032202D2056
:100660004574616E6F6C0A2033202D2044696573D8
:10067000656C0A2034202D2047204164746976611E
:10068000646100000450800B0D6E045004240F6E52
:1006900003AE4DEF03F04FEF03F050EF03F00F8088
:1006A0000F50D8B456EF03F058EF03F06DEF03F09E
:1006B0000F28D8A45EEF03F060EF03F068EF03F0BB
:1006C000000E016E000E026E000E036E000E046E30
:1006D000038E000E046E75EF03F0000E016E000E27
:1006E000026E000E036E000E046E0850800B0E6E3C
:1006F0000D500E18D8B47FEF03F081EF03F082EFB6
:1007000003F00D8C085008240E6E07AE8AEF03F03C
:100710008CEF03F08DEF03F00E800E50D8B493EF02
:1007200003F095EF03F0AAEF03F00E28D8A49BEF97
:1007300003F09DEF03F0A5EF03F0000E056E000E31
:10074000066E000E076E000E086E078E000E086E15
:10075000B2EF03F0000E056E000E066E000E076E7F
:10076000000E086E0F500E5CD8B0B9EF03F0BBEF6F
:1007700003F0E2EF03F00DACC0EF03F0C2EF03F0C3
:10078000C4EF03F0800E0D1A0FC010F00EC00FF072
:1007900010C00EF001C010F005C001F010C005F04F
:1007A00002C010F006C002F010C006F003C010F046
:1007B00007C003F010C007F004C010F008C004F038
:1007C00010C008F0000E106E0F500EC009F00A6A3B
:1007D000095E000E0A5A0ABEF7EF03F00A5009E15B
:1007E0001A0E095CD8A0F7EF03F0F9EF03F030EF31
:1007F00004F00150021003100410D8A402EF04F01A
:1008000005EF04F0010E06EF04F0000E106E000E6E
:10081000016E000E026E000E036E000E046E0EC01E
:100820000FF039EF04F010A018EF04F01AEF04F005
:1008300020EF04F0D89010300109106E22EF04F080
:10084000D890103201A027EF04F029EF04F02AEF2E
:1008500004F0108E043404320332023201320F2AC3
:100860000E500F5CD8A037EF04F039EF04F013EF0F
:1008700004F00DBC3EEF04F040EF04F080EF04F014
:100880000F50D8A446EF04F048EF04F052EF04F004
:10089000000E016E000E026E000E036E000E046E5E
:1008A000A1EF05F005500126065002220750032251
:1008B0000850042204A05FEF04F061EF04F00DEF94
:1008C00005F010A066EF04F068EF04F06EEF04F09E
:1008D000D89010300109106E70EF04F0D8901032EB
:1008E00001A075EF04F077EF04F078EF04F0108EBC
:1008F000043404320332023201320F2A0DEF05F0C4
:100900000550015C06500258075003580450800AF5
:10091000096E0850800A0958D8B091EF04F093EF9F
:1009200004F0BEEF04F00150055C096E0250065859
:100930000A6E035007580B6E045008580C6EFF0ED9
:100940000924016EFF0E0A20026EFF0E0B20036EBB
:10095000FF0E0C20046E800E0D1A106C1050D8A4DF
:10096000B4EF04F0B6EF04F0C6EF04F0010E012678
:10097000000E022203220422C6EF04F00550015E9D
:100980000650025A0750035A0850045A01500210E8
:1009900003100410D8A4CFEF04F0D1EF04F006EF59
:1009A00005F01050D8A4D7EF04F0D9EF04F006EF0B
:1009B00005F0000E016E000E026E000E036E000EBA
:1009C000046EA1EF05F0D8900136023603360436E6
:1009D00010AEEDEF04F0EFEF04F0F0EF04F0018063
:1009E00010A0F5EF04F0F7EF04F0FBEF04F0D8806F
:1009F0001036FDEF04F0D89010360F50D8B403EF46
:100A000005F005EF05F006EF05F00F0603AE0BEF5E
:100A100005F00DEF05F0E3EF04F0000E0E6E10AEE2
:100A200014EF05F016EF05F02EEF05F010C009F0F9
:100A30007F0E0916D8B41FEF05F021EF05F025EF62
:100A400005F0010E0E6E2EEF05F001A02AEF05F065
:100A50002CEF05F02EEF05F021EF05F00E50D8B485
:100A600034EF05F036EF05F061EF05F0010E0126D9
:100A7000000E02220322042204A041EF05F043EFFE
:100A800005F061EF05F001C009F002C00AF003C0F3
:100A90000BF004C00CF00C340C320B320A32093269
:100AA00009C001F00AC002F00BC003F00CC004F052
:100AB0000F28D8B45EEF05F060EF05F061EF05F0A8
:100AC0000F2A0F28D8B467EF05F069EF05F071EF32
:100AD00005F00F50D8A46FEF05F071EF05F083EF2C
:100AE00005F0000E016E000E026E000E036E000E89
:100AF000046E0F50D8A47FEF05F081EF05F083EF6F
:100B000005F0000E0D6E0FA088EF05F08AEF05F0DE
:100B10008DEF05F0038E8EEF05F0039ED8900F3019
:100B2000046E0DAE96EF05F098EF05F099EF05F025
:100B3000048E01C001F002C002F003C003F004C043
:100B400004F01200000E4A6E000E496E20EE60F0B6
:100B500010EE3BF0060EDBCFE3FFE806FCE2010EF1
:100B600078EC12F0800E78EC12F0000E486E3B0E1E
:100B70004824D96EDA6A000EDA22DF507AEC14F0DB
:100B8000482A050E4864C7EF05F0C9EF05F0B7EF36
:100B900005F0200E2DEC13F049EF07F032C013F0F2
:100BA00033C014F034C015F035C016F067C001F042
:100BB00068C002F0036A046A000EABEC0DF001C0DD
:100BC0000FF002C010F003C011F004C012F0E1EC0D
:100BD00007F00FC028F010C029F011C02AF012C091
:100BE0002BF0B0EC10F028C049F029C04AF0C00E3C
:100BF00078EC12F0520E7AEC14F0240E7AEC14F029
:100C0000270E046E100E036E49C001F04AC002F0B8
:100C1000F3EC12F001C008F002C009F0000E0B6EF8
:100C20000A0E0A6E98EC13F00850300F7AEC14F0AC
:100C3000030E046EE80E036E49C001F04AC002F0D4
:100C4000F3EC12F001C008F002C009F0000E0B6EC8
:100C50000A0E0A6E98EC13F00850300F7AEC14F07C
:100C6000000E046E640E036E49C001F04AC002F02B
:100C7000F3EC12F001C008F002C009F0000E0B6E98
:100C80000A0E0A6E98EC13F00850300F7AEC14F04C
:100C9000000E046E0A0E036E49C001F04AC002F055
:100CA000F3EC12F001C008F002C009F0000E0B6E68
:100CB0000A0E0A6E98EC13F00850300F7AEC14F01C
:100CC0002C0E7AEC14F049C008F04AC009F0000E6E
:100CD0000B6E0A0E0A6E98EC13F00850300F7AEC87
:100CE00014F049C001F04AC002F0000E046E0A0E72
:100CF000036EC0EC14F001C008F002C009F0000E51
:100D00000B6E0A0E0A6E98EC13F00850300F7AEC56
:100D100014F0674A682A030E0D6E000E046E0A0E68
:100D2000036E67C001F068C002F0F3EC12F001C07E
:100D300008F002C009F0000E0B6E0A0E0A6E98EC65
:100D400013F00850F8EC13F0020E0D6E000E046E56
:100D5000640E036E67C001F068C002F0F3EC12F09D
:100D600001C008F002C009F0000E0B6E0A0E0A6EF8
:100D700098EC13F00850F8EC13F0010E0D6E030E12
:100D8000046EE80E036E67C001F068C002F0F3EC79
:100D900012F001C008F002C009F0000E0B6E0A0E3E
:100DA0000A6E98EC13F00850F8EC13F0000E0D6E7C
:100DB000270E046E100E036E67C001F068C002F0CB
:100DC000F3EC12F001C008F002C009F0000E0B6E47
:100DD0000A0E0A6E98EC13F00850F8EC13F0000EAF
:100DE000446E000E456E000E466E000E476E44C007
:100DF00001F045C002F046C003F047C004F0000E09
:100E0000056E000E066E340E076E430E086E33EC50
:100E100011F0D8A00EEF07F010EF07F012EF07F077
:100E200045EF07F044C001F045C002F046C003F0B2
:100E300047C004F0000E056E000E066E800E076EB1
:100E40003F0E086E42EC03F001C044F002C045F0D2
:100E500003C046F004C047F044C001F045C002F0B2
:100E600046C003F047C004F0000E056E000E066E8B
:100E7000340E076E430E086E33EC11F0D8A043EF2A
:100E800007F045EF07F012EF07F008EC10F04BEC1D
:100E90000FF036C038F0010E396E000E3A6E382A67
:100EA00055EF07F0D89039363A36382E52EF07F022
:100EB00013EC15F0395001163A5002160150021089
:100EC000D8A465EF07F067EF07F0CEEF05F0000E4E
:100ED0002DEC13F067C042F068C043F049C011F038
:100EE0004AC012F042C013F043C014F0F6EC09F00F
:100EF000000E686E000E676E030E0D6E000E046E1F
:100F00000A0E036E000E026E000E016EF3EC12F07C
:100F100001C008F002C009F0000E0B6E0A0E0A6E46
:100F200098EC13F00850F8EC13F0020E0D6E000E62
:100F3000046E640E036E000E026E000E016EF3EC82
:100F400012F001C008F002C009F0000E0B6E0A0E8C
:100F50000A6E98EC13F00850F8EC13F0010E0D6EC9
:100F6000030E046EE80E036E000E026E000E016E9C
:100F7000F3EC12F001C008F002C009F0000E0B6E95
:100F80000A0E0A6E98EC13F00850F8EC13F0000EFD
:100F90000D6E270E046E100E036E000E026E000E14
:100FA000016EF3EC12F001C008F002C009F0000E6F
:100FB0000B6E0A0E0A6E98EC13F00850F8EC13F062
:100FC00012001250800B1B6E12501224216E11AEB3
:100FD000ECEF07F0EEEF07F0EFEF07F02180215084
:100FE000D8B4F5EF07F0F7EF07F00AEF08F0212883
:100FF000D8A4FDEF07F0FFEF07F007EF08F0000EB1
:101000000F6E000E106E000E116E000E126E118E1D
:1010100012EF08F0000E0F6E000E106E000E116E33
:10102000000E126E1650800B1B1A16501624206EDE
:1010300015AE1DEF08F01FEF08F020EF08F020803C
:101040002050D8B426EF08F028EF08F03BEF08F066
:101050002028D8A42EEF08F030EF08F038EF08F081
:10106000000E136E000E146E000E156E000E166E3E
:10107000158E43EF08F0000E136E000E146E000E76
:10108000156E000E166E2050D8B449EF08F04BEFE5
:1010900008F053EF08F02150D8A451EF08F053EFB7
:1010A00008F05DEF08F0000E0F6E000E106E000EDF
:1010B000116E000E126EF5EF09F015500F02F3CF0E
:1010C00026F0F4CF27F026501C6E1D6A1E6A1F6A98
:1010D0002750226E236A246A256A14501002F3CF27
:1010E00026F0F4CF27F026501C26000E1D221E22CB
:1010F0001F2227502226000E2322242225221350AD
:101100001102F3CF26F0F4CF27F026501C26000E54
:101110001D221E221F2227502226000E23222422B7
:1011200025221EC01FF01DC01EF01CC01DF01C6A31
:1011300013501002F3CF26F0F4CF27F026501C26D0
:1011400027501D22000E1E22000E1F2214500F02D7
:10115000F3CF26F0F4CF27F026501C2627501D226F
:10116000000E1E22000E1F221EC01FF01DC01EF00A
:101170001CC01DF01C6A13500F02F3CF26F0F4CFF1
:1011800027F026501C2627501D22000E1E22000E7E
:101190001F2215501002F3CF26F0F4CF27F026506F
:1011A000222627502322000E2422000E252214502E
:1011B0001102F3CF26F0F4CF27F026502226275035
:1011C0002322000E2422000E252215501102F3CFF7
:1011D00026F0F4CF27F02650176E2750186E196AA4
:1011E0001A6A19C01AF018C019F017C018F0176A57
:1011F0001750222618502322195024221A50252233
:101200001CC017F01DC018F01EC019F01FC01AF046
:10121000190E10EF09F0D8901A321932183217321D
:10122000E82E0BEF09F017502226185023221950F0
:1012300024221A5025221EC01FF01DC01EF01CC003
:101240001DF01C6A205021C017F0186A1726000EE6
:101250001822820E1724266EFF0E1820276E46EFE6
:1012600009F0D89022362336243625361FAE3BEFC0
:1012700009F03DEF09F03EEF09F02280D8901C36CE
:101280001D361E361F362606D8A0270624AE4BEF85
:1012900009F04DEF09F031EF09F0000E206E1FAE9E
:1012A00054EF09F056EF09F07AEF09F0FF0E1C1425
:1012B000176EFF0E1D14186EFF0E1E14196E7F0E92
:1012C0001F141A6E1750181019101A10D8B46BEF9B
:1012D00009F06DEF09F071EF09F0010E206E7AEF61
:1012E00009F022A076EF09F078EF09F07AEF09F023
:1012F0006DEF09F02050D8B480EF09F082EF09F0CB
:10130000A6EF09F0010E2226000E23222422252218
:1013100025A08DEF09F08FEF09F0A6EF09F022C0AC
:1013200017F023C018F024C019F025C01AF01A34A1
:101330001A3219321832173217C022F018C023F0AF
:1013400019C024F01AC025F0264A272A27BEB1EF7B
:1013500009F0275008E12628D8A0B1EF09F0B3EF33
:1013600009F0BDEF09F0000E226E000E236E800E14
:10137000246E7F0E256EEBEF09F027BECAEF09F051
:10138000275006E12604D8B0C8EF09F0CAEF09F0EB
:10139000D6EF09F0000E226E000E236E000E246EB2
:1013A000000E256E000E1B6EEBEF09F026C021F03B
:1013B000FF0E2216FF0E23167F0E2416000E251692
:1013C00021A0E5EF09F0E7EF09F0E8EF09F0248E3E
:1013D000D8902130256E1B50251222C00FF023C05B
:1013E00010F024C011F025C012F0120020EE59F0C8
:1013F00010EE1DF0060EDBCFE3FFE806FCE220EE68
:1014000051F010EE15F0070EDBCFE3FFE806FCE22B
:10141000000E246E010E78EC12F0000E256E1D0EEB
:101420002524D96EDA6A000EDA22DF507AEC14F045
:10143000252A050E25641FEF0AF021EF0AF00FEFB1
:101440000AF0C00E78EC12F0520E7AEC14F0240E72
:101450007AEC14F0270E046E100E036E11C001F02A
:1014600012C002F0F3EC12F001C008F002C009F063
:10147000000E0B6E0A0E0A6E98EC13F00850300F37
:101480007AEC14F0030E046EE80E036E11C001F046
:1014900012C002F0F3EC12F001C008F002C009F033
:1014A000000E0B6E0A0E0A6E98EC13F00850300F07
:1014B0007AEC14F0000E046E640E036E11C001F09D
:1014C00012C002F0F3EC12F001C008F002C009F003
:1014D000000E0B6E0A0E0A6E98EC13F00850300FD7
:1014E0007AEC14F0000E046E0A0E036E11C001F0C7
:1014F00012C002F0F3EC12F001C008F002C009F0D3
:10150000000E0B6E0A0E0A6E98EC13F00850300FA6
:101510007AEC14F02C0E7AEC14F011C008F012C022
:1015200009F0000E0B6E0A0E0A6E98EC13F00850CC
:10153000300F7AEC14F011C001F012C002F0000E6E
:10154000046E0A0E036EC0EC14F001C008F002C075
:1015500009F0000E0B6E0A0E0A6E98EC13F008509C
:10156000300F7AEC14F0900E78EC12F0000E256E2D
:10157000150E2524D96EDA6A000EDA22DF507AECD5
:1015800014F0252A060E2564C8EF0AF0CAEF0AF007
:10159000B8EF0AF0D00E78EC12F0270E046E100EA1
:1015A000036E13C001F014C002F0F3EC12F001C09E
:1015B00008F002C009F0000E0B6E0A0E0A6E98ECDD
:1015C00013F00850300F7AEC14F0030E046EE80E9E
:1015D000036E13C001F014C002F0F3EC12F001C06E
:1015E00008F002C009F0000E0B6E0A0E0A6E98ECAD
:1015F00013F00850300F7AEC14F0000E046E640EF5
:10160000036E13C001F014C002F0F3EC12F001C03D
:1016100008F002C009F0000E0B6E0A0E0A6E98EC7C
:1016200013F00850300F7AEC14F0000E046E0A0E1E
:10163000036E13C001F014C002F0F3EC12F001C00D
:1016400008F002C009F0000E0B6E0A0E0A6E98EC4C
:1016500013F00850300F7AEC14F00A0EA4EC14F0DA
:10166000010E78EC12F0110E096E060E0A6EB5EC42
:1016700011F048EF0BF013EC15F001A042EF0BF066
:1016800044EF0BF046EF0BF0010E246E4BEC0FF025
:101690002450D8B44EEF0BF050EF0BF03BEF0BF0B3
:1016A000010E78EC12F0800E78EC12F04D0E096EFF
:1016B000060E0A6EB5EC11F0120002BE6BEF0BF0D5
:1016C000025007E1080E015CD8B069EF0BF06BEF38
:1016D0000BF095EF0BF003500410D8B472EF0BF041
:1016E00074EF0BF084EF0BF001C005F0010E066EF5
:1016F000052A7DEF0BF0D8900636052E7BEF0BF018
:101700000650921283EF0CF001C005F0010E066E38
:10171000052A8DEF0BF0D8900636052E8BEF0BF0D7
:101720000650FF0A921683EF0CF002BEA3EF0BF0F7
:10173000025007E1100E015CD8B0A1EF0BF0A3EF4F
:101740000BF0D1EF0BF003500410D8B4AAEF0BF05C
:10175000ACEF0BF0BEEF0BF001C005F0F80E052664
:10176000010E066E052AB7EF0BF0D8900636052E4F
:10177000B5EF0BF00650931283EF0CF001C005F0AB
:10178000F80E0526010E066E052AC9EF0BF0D8905B
:101790000636052EC7EF0BF00650FF0A931683EFAF
:1017A0000CF002BEDFEF0BF0025007E1180E015CF7
:1017B000D8B0DDEF0BF0DFEF0BF00DEF0CF00350C6
:1017C0000410D8B4E6EF0BF0E8EF0BF0FAEF0BF0F3
:1017D00001C005F0F00E0526010E066E052AF3EF96
:1017E0000BF0D8900636052EF1EF0BF00650941250
:1017F00083EF0CF001C005F0F00E0526010E066E19
:10180000052A05EF0CF0D8900636052E03EF0CF0F4
:101810000650FF0A941683EF0CF002BE1BEF0CF08B
:10182000025007E1200E015CD8B019EF0CF01BEF5D
:101830000CF049EF0CF003500410D8B422EF0CF078
:1018400024EF0CF036EF0CF001C005F0E80E052691
:10185000010E066E052A2FEF0CF0D8900636052EE5
:101860002DEF0CF00650951283EF0CF001C005F03F
:10187000E80E0526010E066E052A41EF0CF0D89001
:101880000636052E3FEF0CF00650FF0A951683EF43
:101890000CF002BE57EF0CF0025007E1280E015C7D
:1018A000D8B055EF0CF057EF0CF083EF0CF003506D
:1018B0000410D8B45EEF0CF060EF0CF072EF0CF097
:1018C00001C005F0E00E0526010E066E052A6BEF3D
:1018D0000CF0D8900636052E69EF0CF006509612E3
:1018E00083EF0CF001C005F0E00E0526010E066E38
:1018F000052A7DEF0CF0D8900636052E7BEF0CF014
:101900000650FF0A9616120002BE92EF0CF002502B
:1019100007E1080E015CD8B090EF0CF092EF0CF0EC
:10192000BCEF0CF003500410D8B499EF0CF09BEF0F
:101930000CF0ABEF0CF001C005F0010E066E052AAD
:10194000A4EF0CF0D8900636052EA2EF0CF006504E
:101950008012AAEF0DF001C005F0010E066E052AF7
:10196000B4EF0CF0D8900636052EB2EF0CF006500E
:10197000FF0A8016AAEF0DF002BECAEF0CF002506B
:1019800007E1100E015CD8B0C8EF0CF0CAEF0CF004
:10199000F8EF0CF0F80E0126FF0E0222035004109F
:1019A000D8B4D5EF0CF0D7EF0CF0E7EF0CF001C096
:1019B00005F0010E066E052AE0EF0CF0D890063611
:1019C000052EDEEF0CF006508112AAEF0DF001C0DB
:1019D00005F0010E066E052AF0EF0CF0D8900636E1
:1019E000052EEEEF0CF00650FF0A8116AAEF0DF05F
:1019F00002BE06EF0DF0025007E1180E015CD8B0F0
:101A000004EF0DF006EF0DF034EF0DF0F00E0126AF
:101A1000FF0E022203500410D8B411EF0DF013EFA3
:101A20000DF023EF0DF001C005F0010E066E052A42
:101A30001CEF0DF0D8900636052E1AEF0DF006506B
:101A40008212AAEF0DF001C005F0010E066E052A04
:101A50002CEF0DF0D8900636052E2AEF0DF006502B
:101A6000FF0A8216AAEF0DF002BE42EF0DF00250FF
:101A700007E1200E015CD8B040EF0DF042EF0DF011
:101A800070EF0DF0E80E0126FF0E02220350041045
:101A9000D8B44DEF0DF04FEF0DF05FEF0DF001C03A
:101AA00005F0010E066E052A58EF0DF0D8900636A7
:101AB000052E56EF0DF006508312AAEF0DF001C06F
:101AC00005F0010E066E052A68EF0DF0D890063677
:101AD000052E66EF0DF00650FF0A8316AAEF0DF0F3
:101AE00002BE7EEF0DF0025007E1280E015CD8B077
:101AF0007CEF0DF07EEF0DF0AAEF0DF0E00E012669
:101B0000FF0E022203500410D8B489EF0DF08BEFC2
:101B10000DF09BEF0DF001C005F0010E066E052AD9
:101B200094EF0DF0D8900636052E92EF0DF006508A
:101B30008412AAEF0DF001C005F0010E066E052A11
:101B4000A4EF0DF0D8900636052EA2EF0DF006504A
:101B5000FF0A84161200096E0950D8B4B2EF0DF0D6
:101B6000B4EF0DF0D6EF0DF004BEBBEF0DF0B9EF02
:101B70000DF0D6EF0DF001C005F002C006F003C075
:101B800007F004C008F0051E061E071E081E052AE1
:101B9000000E06220722082205C00BF006C00CF03A
:101BA00007C00DF008C00EF0DEEF0DF001C00BF025
:101BB00002C00CF003C00DF004C00EF00150021082
:101BC00003100410D8A4E7EF0DF0E9EF0DF0F3EFE8
:101BD0000DF0000E016E000E026E000E036E000E80
:101BE000046E84EF0EF0960E0A6EFDEF0DF00A2AD9
:101BF000D8900E320D320C320B32000E0B14056EE3
:101C0000000E0C14066E000E0D14076EFE0E0E1460
:101C1000086E0550061007100810D8A412EF0EF039
:101C200014EF0EF0F7EF0DF022EF0EF00A2A010E7E
:101C30000B26000E0C220D220E22D8900E320D32F1
:101C40000C320B32000E0B14056E000E0C14066ED7
:101C5000000E0D14076EFF0E0E14086E05500610D0
:101C600007100810D8A437EF0EF039EF0EF016EF7A
:101C70000EF041EF0EF00A06D8900B360C360D36FA
:101C80000E360DBE46EF0EF048EF0EF050EF0EF0A0
:101C9000020E0A604EEF0EF050EF0EF03BEF0EF02A
:101CA0000AB055EF0EF057EF0EF058EF0EF00D9E04
:101CB000D8900A320AC005F0066A076A086A05C0A9
:101CC00008F0076A066A056A05500B1206500C12E6
:101CD00007500D1208500E120950D8B472EF0EF0D2
:101CE00074EF0EF07CEF0EF004BE7BEF0EF079EF98
:101CF0000EF07CEF0EF00E8E0BC001F00CC002F067
:101D00000DC003F00EC004F01200000E956E000E20
:101D1000836EB7EC12F063EC13F04FEC14F00EECA2
:101D200015F004EC15F008EC10F04BEC0FF013EC90
:101D300015F001C04FF002C050F04FA6A2EF0EF018
:101D4000A4EF0EF0B2EF0EF0BC0E326E740E336ED6
:101D5000C30E346E400E356E000E376E030E366EB7
:101D6000A2EC05F04FAEB7EF0EF0B9EF0EF0C7EFF3
:101D70000EF0350E326E5E0E336E8A0E346E400EED
:101D8000356E000E376E070E366EA2EC05F050A6CB
:101D9000CCEF0EF0CEEF0EF0DCEF0EF0DB0E326E7D
:101DA000F90E336E960E346E400E356E000E376EA1
:101DB0000B0E366EA2EC05F04FA4E1EF0EF0E3EF50
:101DC0000EF0F1EF0EF0710E326E3D0E336EC60E58
:101DD000346E400E356E000E376E020E366EA2EC7B
:101DE00005F0000E4B6E000E4C6E000E4D6E000E98
:101DF0004E6E4BC001F04CC002F04DC003F04EC01F
:101E000004F0000E056E000E066EC80E076E420E40
:101E1000086E33EC11F0D8A010EF0FF012EF0FF0B6
:101E200014EF0FF093EF0EF04BC001F04CC002F036
:101E30004DC003F04EC004F0000E056E000E066E9D
:101E4000800E076E3F0E086E42EC03F001C04BF0AF
:101E500002C04CF003C04DF004C04EF04BC001F086
:101E60004CC002F04DC003F04EC004F0000E056EF1
:101E7000000E066EC80E076E420E086E33EC11F0AF
:101E8000D8A045EF0FF047EF0FF014EF0FF093EFEE
:101E90000EF000EF00F083CF06F00F0E9512000E4B
:101EA0000A6EF80E93160AC001F0010E026E012AA6
:101EB0005CEF0FF0D8900236012E5AEF0FF002506F
:101EC0009312070E81120AC001F0010E026E012A60
:101ED0006CEF0FF0D8900236012E6AEF0FF002502F
:101EE000FF0A8116000E086E000E076E074A082AC8
:101EF00008BE84EF0FF0085009E10A0E075CD8A075
:101F000084EF0FF086EF0FF076EF0FF0000E096E02
:101F100009C001F0010E026E012A91EF0FF0D89076
:101F20000236012E8FEF0FF0025083140009D8A45F
:101F30009CEF0FF09EEF0FF0B6EF0FF00A50040D7C
:101F4000F3500924016E010E026E000E036E012A89
:101F5000ADEF0FF0D89002360336012EAAEF0FF046
:101F600002506B1203506C12D0EF0FF00A50040DA8
:101F7000F3500924016E010E026E000E036E012A59
:101F8000C5EF0FF0D89002360336012EC2EF0FF0E6
:101F9000021C046E031C056E04506B1605506C1673
:101FA000092A030E0964D7EF0FF0D9EF0FF088EF7D
:101FB0000FF00A2A020E0A64E0EF0FF0E2EF0FF0D2
:101FC00051EF0FF06B50691807E16C506A18D8A4F4
:101FD000ECEF0FF0EEEF0FF0F1EF0FF07406F7EF0C
:101FE0000FF00A0E746E6BC069F06CC06AF074502A
:101FF000D8A4FDEF0FF0FFEF0FF003EF10F069C072
:102000006DF06AC06EF006C083FF000E956E120080
:10201000000E956E000E026E020E016E000E046E32
:10202000000E036E84EC0CF0000E026E030E016EC7
:10203000000E046E000E036E84EC0CF0000E026EB7
:10204000040E016E000E046E000E036E84EC0CF0A4
:10205000000E026E050E016E000E046E000E036E81
:1020600084EC0CF0000E836E92EF10F0010E7224DF
:10207000F66EF76A060EF7220800F5CF83FF000E12
:10208000026E020E016E000E046E010E036E84ECF1
:102090000CF0010E736EAFEF10F0010E7124F66EAE
:1020A000F76A060EF7220800F5CF83FF000E026ED6
:1020B000030E016E000E046E010E036E84EC0CF034
:1020C000020E736EAFEF10F0010E7024F66EF76A19
:1020D000060EF7220800F5CF83FF000E026E040EF5
:1020E000016E000E046E010E036E84EC0CF0030E04
:1020F000736EAFEF10F0010E6F24F66EF76A060EE6
:10210000F7220800F5CF83FF000E026E050E016E68
:10211000000E046E010E036E84EC0CF0000E736E64
:10212000AFEF10F07350076E086A0850000AD8B479
:102130009CEF10F08EEF10F00750000AD8B436EF85
:1021400010F0010AD8B44DEF10F0030AD8B464EFD0
:1021500010F0010AD8B47BEF10F08EEF10F01200EF
:102160002A342B34316E3150D8A4B9EF10F0BBEFC4
:1021700010F0C5EF10F0000E286E000E296E000E54
:102180002A6E000E2B6E32EF11F028C02CF029C001
:102190002DF02AC02EF02BC02FF0200ED5EF10F01E
:1021A000D8902F322E322D322C32E82ED0EF10F074
:1021B0002C50306E2A8EFF0E2816FF0E2916FF0EA9
:1021C0002A16000E2B16960E315E31BEECEF10F083
:1021D000EAEF10F002EF11F03150800A970FD8B0FB
:1021E000F4EF10F0F6EF10F0F8EF10F0BBEF10F096
:1021F000D8902B322A3229322832313EF8EF10F0B3
:102200001AEF11F01F0E316408EF11F00AEF11F010
:1022100012EF11F0BBEF10F0D890283629362A368D
:102220002B3631063150D8A418EF11F01AEF11F007
:102230000CEF11F03050D8B420EF11F022EF11F074
:102240002AEF11F02B1E2A1E291E286C000E2922AF
:102250002A222B2228C028F029C029F02AC02AF0DF
:102260002BC02BF01200000E0114096E000E021498
:102270000A6E800E03140B6E7F0E04140C6E095050
:102280000A100B100C10D8A448EF11F04AEF11F00F
:1022900052EF11F0000E016E000E026E000E036E82
:1022A000000E046E000E0514096E000E06140A6E70
:1022B000800E07140B6E7F0E08140C6E09500A1066
:1022C0000B100C10D8A467EF11F069EF11F071EF4B
:1022D00011F0000E056E000E066E000E076E000E69
:1022E000086E04AE76EF11F078EF11F081EF11F087
:1022F000016C021ED8B0022A031ED8B0032A800E39
:10230000045608AE86EF11F088EF11F091EF11F04E
:10231000056C061ED8B0062A071ED8B0072A800E04
:102320000856000E011A000E021A000E031A800E43
:10233000041A000E051A000E061A000E071A800E67
:10234000081A0550015C06500258075003580850FF
:102350000458D8B0AEEF11F0B0EF11F0B3EF11F0B8
:10236000D890B4EF11F0D8801200000E0E6E010E5E
:102370000D6E800E78EC12F0000E106E000E0F6ED7
:102380000F5009240B6E10500A200C6E0BC0F6FF84
:102390000CC0F7FF0800F5500A0AD8A4D2EF11F0DC
:1023A000D4EF11F009EF12F00F4A102A0D040E10AD
:1023B000D8A4DDEF11F0DFEF11F0E6EF11F0C00E61
:1023C00078EC12F00D4A0E2A09EF12F0020E0D18E9
:1023D0000E10D8A4EEEF11F0F0EF11F0F5EF11F0C0
:1023E000900E78EC12F0E2EF11F0030E0D180E10C3
:1023F000D8A4FDEF11F0FFEF11F004EF12F0D00EB2
:1024000078EC12F0E2EF11F0D00E78EC12F0E2EF7F
:1024100011F00F5009240B6E10500A200C6E0BC0E7
:10242000F6FF0CC0F7FF0800F5507AEC14F00F4AE5
:10243000102A10BE25EF12F0105009E13C0E0F5C7F
:10244000D8A025EF12F027EF12F0C0EF11F0120024
:10245000010E836EFA0ECAEC13F0030E836EFA0EB1
:10246000CAEC13F0070E836EFA0ECAEC13F00F0ECF
:10247000836EFA0ECAEC13F01F0E836EFA0ECAECCE
:1024800013F03F0E836EFA0ECAEC13F07F0E836ECC
:10249000FA0ECAEC13F08368FA0ECAEC13F07F0E42
:1024A000836EFA0ECAEC13F03F0E836EFA0ECAEC7E
:1024B00013F01F0E836EFA0ECAEC13F00F0E836E2C
:1024C000FA0ECAEC13F0070E836EFA0ECAEC13F084
:1024D000030E836EFA0ECAEC13F0010E836EFA0E31
:1024E000CAEC13F0000E836EFA0ECAEC13F0120061
:1024F000086E83CF07F0000E956E000E026E220E5E
:10250000016E000E046E000E036E84EC0CF008C029
:1025100083FF000E026E210E016E000E046E010E8E
:10252000036E84EC0CF0000E026E210E016E000EA4
:10253000046E000E036E84EC0CF007C083FF020EE5
:102540000818D8B4A6EF12F0A8EF12F0B0EF12F00E
:102550000804D8A4AEEF12F0B0EF12F0B4EF12F00E
:10256000D3EC14F0B6EF12F0EDEC14F01200000E04
:10257000026E220E016E000E046E000E036E5DEC04
:102580000BF0000E026E210E016E000E046E000EA6
:10259000036E5DEC0BF0000E956ED3EC14F0D3ECF3
:1025A00014F0D3EC14F0D3EC14F0D3EC14F0380E98
:1025B00078EC12F0D3EC14F0D3EC14F0380E78EC85
:1025C00012F0D3EC14F0380E78EC12F0380E78ECF0
:1025D00012F0060E78EC12F00C0E78EC12F0010EF0
:1025E00078EC12F01200000E066E000E056E03501D
:1025F0000410D8B4FEEF12F000EF13F028EF13F040
:10260000010E076E08EF13F0D89003360436072A40
:1026100004AE0DEF13F00FEF13F004EF13F0D890AA
:10262000053606360350015C04500258D8A01BEF53
:1026300013F01DEF13F022EF13F00350015E04506E
:10264000025A0580D89004320332072E0FEF13F0A0
:1026500005C001F006C002F012000A6E010ECB2484
:10266000016E026A000E02220AC003F0046AC0EC86
:1026700014F001C00BF002C00CF00BC001F00CC054
:1026800002F0000E046E190E036EF3EC12F001C09E
:102690000BF002C00CF0FF0E0B16030E0C160BC055
:1026A00008F00CC009F0D89009320832D8900932ED
:1026B00008320850BE6E0BC008F0030E081608382A
:1026C000F00BBD12120020EE80F010EE11F0170E8C
:1026D000DBCFE3FFE806FCE228EC12F08F0E78EC8B
:1026E00012F0000E296E110E2924D96EDA6A000E3E
:1026F000DA22DF507AEC14F0180E78EC12F0FA0EB1
:10270000CAEC13F0292A160E296489EF13F08BEF17
:1027100013F073EF13F0FA0ECAEC13F0010E78EC1D
:1027200012F04D0E096E060E0A6EB5EC11F0120095
:102730000A500B10D8B49FEF13F0A1EF13F0C5EFC0
:1027400013F0010E0C6EA9EF13F0D8900A360B3679
:102750000C2A0BAEAEEF13F0B0EF13F0A5EF13F0B1
:102760000A50085C0B500958D8A0B9EF13F0BBEF22
:1027700013F0BFEF13F00A50085E0B50095AD890BF
:102780000B320A320C2EB0EF13F008C008F009C06B
:1027900009F01200016E000E026EEEEF13F0000E53
:1027A000036E280E0364D7EF13F0D9EF13F0DBEFBD
:1027B00013F0EDEF13F0000E046E020E0464E3EF6D
:1027C00013F0E5EF13F0E7EF13F0EAEF13F0042A4C
:1027D000DDEF13F0032AD1EF13F0022A0150025C5F
:1027E000D8A0F5EF13F0F7EF13F0CFEF13F01200CE
:1027F0000E6E0D50D8A4FFEF13F001EF14F003EFAD
:1028000014F00EC072F00D04D8A409EF14F00BEF11
:1028100014F00DEF14F00EC071F0020E0D18D8A4D4
:1028200014EF14F016EF14F018EF14F00EC070F05F
:10283000030E0D18D8A41FEF14F021EF14F023EFAE
:1028400014F00EC06FF01200C20EF66E290EF76E75
:10285000000EF86E00EE80F010EE18F00900F5CFD3
:10286000EEFFE550E150FAE1F20EF66E290EF76E3A
:10287000000EF86E00EE51F010EE16F00900F5CFE4
:10288000EEFFE550E150FAE100EE67F00E0EEE6A61
:10289000E806FDE1000EF86E000185EF0EF0000E77
:1028A000026E020E016E000E046E000E036E5DECF1
:1028B0000BF0000E026E030E016E000E046E000E91
:1028C000036E5DEC0BF0000E026E040E016E000E46
:1028D000046E000E036E5DEC0BF0000E026E050E32
:1028E000016E000E046E000E036E5DEC0BF0000E28
:1028F000956E1200076E83CF08F0000E956E000EE5
:10290000026E220E016E000E046E010E036E84EC48
:102910000CF007C083FF000E026E210E016E000E48
:10292000046E010E036E84EC0CF0000E026E210E9C
:10293000016E000E046E000E036E84EC0CF008C0F5
:1029400083FFEDEC14F01200056E000E066EB6EF7C
:1029500014F0FA0ECAEC13F0FA0ECAEC13F0FA0EE9
:10296000CAEC13F0FA0ECAEC13F0062A0550065C06
:10297000D8A0BDEF14F0BFEF14F0A9EF14F01200CF
:1029800001500302F3CF05F0F4CF06F0015004022A
:10299000F350062602500302F350062605C001F04C
:1029A00006C002F01200000E026EEDEC14F0022AD6
:1029B000310E0264DEEF14F0E0EF14F0D5EF14F006
:1029C000120042656D2D76696E646F7320506F73CF
:1029D000746F20646120416E6100000E016E012A57
:1029E000180E0164F6EF14F0F8EF14F0EFEF14F0A6
:1029F00012006C6974726F733A00746F74616C3A90
:102A000000746F74616C3A0094929494030ECA122D
:102A1000CA840C0EBD120C0EBA121200070E9316C9
:102A20000F0E951212006DC001F06EC002F0120080
:020000040020DA
:08000000FFFFFFFFFFFFFFFF00
:020000040030CA
:0E000000FF027100FF8380FF0FC00FE00F4072
:00000001FF
